{
  "_format": "hh-sol-artifact-1",
  "contractName": "CrowdFund",
  "sourceName": "contracts/CrowdFund.sol",
  "abi": [
    {
      "inputs": [
        {
          "internalType": "address",
          "name": "_token",
          "type": "address"
        }
      ],
      "stateMutability": "payable",
      "type": "constructor"
    },
    {
      "anonymous": false,
      "inputs": [
        {
          "indexed": false,
          "internalType": "uint256",
          "name": "id",
          "type": "uint256"
        }
      ],
      "name": "Cancel",
      "type": "event"
    },
    {
      "anonymous": false,
      "inputs": [
        {
          "indexed": false,
          "internalType": "uint256",
          "name": "_id",
          "type": "uint256"
        }
      ],
      "name": "Claim",
      "type": "event"
    },
    {
      "anonymous": false,
      "inputs": [
        {
          "indexed": false,
          "internalType": "uint256",
          "name": "id",
          "type": "uint256"
        },
        {
          "indexed": true,
          "internalType": "address",
          "name": "creator",
          "type": "address"
        },
        {
          "indexed": false,
          "internalType": "uint256",
          "name": "goal",
          "type": "uint256"
        },
        {
          "indexed": false,
          "internalType": "uint32",
          "name": "startAt",
          "type": "uint32"
        },
        {
          "indexed": false,
          "internalType": "uint32",
          "name": "endAt",
          "type": "uint32"
        }
      ],
      "name": "Launch",
      "type": "event"
    },
    {
      "anonymous": false,
      "inputs": [
        {
          "indexed": true,
          "internalType": "uint256",
          "name": "id",
          "type": "uint256"
        },
        {
          "indexed": true,
          "internalType": "address",
          "name": "caller",
          "type": "address"
        },
        {
          "indexed": false,
          "internalType": "uint256",
          "name": "amount",
          "type": "uint256"
        }
      ],
      "name": "Pledge",
      "type": "event"
    },
    {
      "anonymous": false,
      "inputs": [
        {
          "indexed": true,
          "internalType": "uint256",
          "name": "id",
          "type": "uint256"
        },
        {
          "indexed": true,
          "internalType": "address",
          "name": "caller",
          "type": "address"
        },
        {
          "indexed": false,
          "internalType": "uint256",
          "name": "amount",
          "type": "uint256"
        }
      ],
      "name": "Refund",
      "type": "event"
    },
    {
      "anonymous": false,
      "inputs": [
        {
          "indexed": true,
          "internalType": "uint256",
          "name": "id",
          "type": "uint256"
        },
        {
          "indexed": true,
          "internalType": "address",
          "name": "caller",
          "type": "address"
        },
        {
          "indexed": false,
          "internalType": "uint256",
          "name": "amount",
          "type": "uint256"
        }
      ],
      "name": "Unpledge",
      "type": "event"
    },
    {
      "inputs": [
        {
          "internalType": "uint256",
          "name": "",
          "type": "uint256"
        }
      ],
      "name": "campaigns",
      "outputs": [
        {
          "internalType": "address",
          "name": "creator",
          "type": "address"
        },
        {
          "internalType": "uint256",
          "name": "goal",
          "type": "uint256"
        },
        {
          "internalType": "uint256",
          "name": "pledged",
          "type": "uint256"
        },
        {
          "internalType": "uint32",
          "name": "startAt",
          "type": "uint32"
        },
        {
          "internalType": "uint32",
          "name": "endAt",
          "type": "uint32"
        },
        {
          "internalType": "bool",
          "name": "claimed",
          "type": "bool"
        }
      ],
      "stateMutability": "view",
      "type": "function"
    },
    {
      "inputs": [
        {
          "internalType": "uint256",
          "name": "_id",
          "type": "uint256"
        }
      ],
      "name": "cancel",
      "outputs": [],
      "stateMutability": "nonpayable",
      "type": "function"
    },
    {
      "inputs": [
        {
          "internalType": "uint256",
          "name": "_id",
          "type": "uint256"
        }
      ],
      "name": "claim",
      "outputs": [],
      "stateMutability": "nonpayable",
      "type": "function"
    },
    {
      "inputs": [],
      "name": "count",
      "outputs": [
        {
          "internalType": "uint256",
          "name": "",
          "type": "uint256"
        }
      ],
      "stateMutability": "view",
      "type": "function"
    },
    {
      "inputs": [
        {
          "internalType": "uint256",
          "name": "_goal",
          "type": "uint256"
        },
        {
          "internalType": "uint32",
          "name": "_startAt",
          "type": "uint32"
        },
        {
          "internalType": "uint32",
          "name": "_endAt",
          "type": "uint32"
        }
      ],
      "name": "launch",
      "outputs": [],
      "stateMutability": "nonpayable",
      "type": "function"
    },
    {
      "inputs": [],
      "name": "owner",
      "outputs": [
        {
          "internalType": "address payable",
          "name": "",
          "type": "address"
        }
      ],
      "stateMutability": "view",
      "type": "function"
    },
    {
      "inputs": [
        {
          "internalType": "uint256",
          "name": "_id",
          "type": "uint256"
        },
        {
          "internalType": "uint256",
          "name": "_amount",
          "type": "uint256"
        }
      ],
      "name": "pledge",
      "outputs": [],
      "stateMutability": "payable",
      "type": "function"
    },
    {
      "inputs": [
        {
          "internalType": "uint256",
          "name": "",
          "type": "uint256"
        },
        {
          "internalType": "address",
          "name": "",
          "type": "address"
        }
      ],
      "name": "pledgedAmount",
      "outputs": [
        {
          "internalType": "uint256",
          "name": "",
          "type": "uint256"
        }
      ],
      "stateMutability": "view",
      "type": "function"
    },
    {
      "inputs": [
        {
          "internalType": "uint256",
          "name": "_id",
          "type": "uint256"
        }
      ],
      "name": "refund",
      "outputs": [],
      "stateMutability": "nonpayable",
      "type": "function"
    },
    {
      "inputs": [],
      "name": "token",
      "outputs": [
        {
          "internalType": "contract IERC20",
          "name": "",
          "type": "address"
        }
      ],
      "stateMutability": "view",
      "type": "function"
    },
    {
      "inputs": [
        {
          "internalType": "uint256",
          "name": "_id",
          "type": "uint256"
        },
        {
          "internalType": "uint256",
          "name": "_amount",
          "type": "uint256"
        }
      ],
      "name": "unpledge",
      "outputs": [],
      "stateMutability": "nonpayable",
      "type": "function"
    }
  ],
  "bytecode": "0x60a060405260405162001c2f38038062001c2f83398181016040528101906200002991906200010e565b8073ffffffffffffffffffffffffffffffffffffffff1660808173ffffffffffffffffffffffffffffffffffffffff1681525050336000806101000a81548173ffffffffffffffffffffffffffffffffffffffff021916908373ffffffffffffffffffffffffffffffffffffffff1602179055505062000140565b600080fd5b600073ffffffffffffffffffffffffffffffffffffffff82169050919050565b6000620000d682620000a9565b9050919050565b620000e881620000c9565b8114620000f457600080fd5b50565b6000815190506200010881620000dd565b92915050565b600060208284031215620001275762000126620000a4565b5b60006200013784828501620000f7565b91505092915050565b608051611ab762000178600039600081816104cb015281816109cb01528181610e1a01528181610f5601526110cd0152611ab76000f3fe60806040526004361061009c5760003560e01c806340e58ee51161006457806340e58ee514610189578063711853ab146101b25780638da5cb5b146101db578063aa4fb63a14610206578063fc0c546a14610243578063fde327be1461026e5761009c565b806306661abd146100a1578063141961bc146100cc578063278ecde11461010e5780632c63f14614610137578063379607f514610160575b600080fd5b3480156100ad57600080fd5b506100b661028a565b6040516100c391906111d9565b60405180910390f35b3480156100d857600080fd5b506100f360048036038101906100ee9190611225565b610290565b604051610105969594939291906112cd565b60405180910390f35b34801561011a57600080fd5b5061013560048036038101906101309190611225565b610319565b005b34801561014357600080fd5b5061015e6004803603810190610159919061135a565b6105bc565b005b34801561016c57600080fd5b5061018760048036038101906101829190611225565b61080a565b005b34801561019557600080fd5b506101b060048036038101906101ab9190611225565b610aa7565b005b3480156101be57600080fd5b506101d960048036038101906101d491906113ad565b610d22565b005b3480156101e757600080fd5b506101f0610f0b565b6040516101fd919061140e565b60405180910390f35b34801561021257600080fd5b5061022d60048036038101906102289190611455565b610f2f565b60405161023a91906111d9565b60405180910390f35b34801561024f57600080fd5b50610258610f54565b60405161026591906114f4565b60405180910390f35b610288600480360381019061028391906113ad565b610f78565b005b60015481565b60026020528060005260406000206000915090508060000160009054906101000a900473ffffffffffffffffffffffffffffffffffffffff16908060010154908060020154908060030160009054906101000a900463ffffffff16908060030160049054906101000a900463ffffffff16908060030160089054906101000a900460ff16905086565b60006002600083815260200190815260200160002090508060000160009054906101000a900473ffffffffffffffffffffffffffffffffffffffff1673ffffffffffffffffffffffffffffffffffffffff163373ffffffffffffffffffffffffffffffffffffffff16146103c2576040517f08c379a00000000000000000000000000000000000000000000000000000000081526004016103b99061156c565b60405180910390fd5b8060030160049054906101000a900463ffffffff1663ffffffff16421161041e576040517f08c379a0000000000000000000000000000000000000000000000000000000008152600401610415906115d8565b60405180910390fd5b60006003600084815260200190815260200160002060003373ffffffffffffffffffffffffffffffffffffffff1673ffffffffffffffffffffffffffffffffffffffff16815260200190815260200160002054905060006003600085815260200190815260200160002060003373ffffffffffffffffffffffffffffffffffffffff1673ffffffffffffffffffffffffffffffffffffffff168152602001908152602001600020819055507f000000000000000000000000000000000000000000000000000000000000000073ffffffffffffffffffffffffffffffffffffffff1663a9059cbb33836040518363ffffffff1660e01b81526004016105249291906115f8565b6020604051808303816000875af1158015610543573d6000803e3d6000fd5b505050506040513d601f19601f82011682018060405250810190610567919061164d565b503373ffffffffffffffffffffffffffffffffffffffff16837f21e12a7cad0da5928167e1084ea4d5fdf8d9af66657a2543a9ac76a0ca081477836040516105af91906111d9565b60405180910390a3505050565b8163ffffffff168163ffffffff16101561060b576040517f08c379a0000000000000000000000000000000000000000000000000000000008152600401610602906116c6565b60405180910390fd5b6276a7004261061a9190611715565b8163ffffffff161115610662576040517f08c379a000000000000000000000000000000000000000000000000000000000815260040161065990611795565b60405180910390fd5b60018060008282546106749190611715565b925050819055506040518060c001604052803373ffffffffffffffffffffffffffffffffffffffff168152602001848152602001600081526020018363ffffffff1681526020018263ffffffff1681526020016000151581525060026000600154815260200190815260200160002060008201518160000160006101000a81548173ffffffffffffffffffffffffffffffffffffffff021916908373ffffffffffffffffffffffffffffffffffffffff160217905550602082015181600101556040820151816002015560608201518160030160006101000a81548163ffffffff021916908363ffffffff16021790555060808201518160030160046101000a81548163ffffffff021916908363ffffffff16021790555060a08201518160030160086101000a81548160ff0219169083151502179055509050503373ffffffffffffffffffffffffffffffffffffffff167f0601cd0d650b473037e838a2696d41e654433d065b3f56b28d1d3302e44a304f6001548585856040516107fd94939291906117b5565b60405180910390a2505050565b60006002600083815260200190815260200160002090508060000160009054906101000a900473ffffffffffffffffffffffffffffffffffffffff1673ffffffffffffffffffffffffffffffffffffffff163373ffffffffffffffffffffffffffffffffffffffff16146108b3576040517f08c379a00000000000000000000000000000000000000000000000000000000081526004016108aa9061156c565b60405180910390fd5b8060030160049054906101000a900463ffffffff1663ffffffff16421161090f576040517f08c379a0000000000000000000000000000000000000000000000000000000008152600401610906906115d8565b60405180910390fd5b80600101548160020154101561095a576040517f08c379a000000000000000000000000000000000000000000000000000000000815260040161095190611846565b60405180910390fd5b8060030160089054906101000a900460ff16156109ac576040517f08c379a00000000000000000000000000000000000000000000000000000000081526004016109a3906118b2565b60405180910390fd5b60018160030160086101000a81548160ff0219169083151502179055507f000000000000000000000000000000000000000000000000000000000000000073ffffffffffffffffffffffffffffffffffffffff1663a9059cbb3383600201546040518363ffffffff1660e01b8152600401610a289291906115f8565b6020604051808303816000875af1158015610a47573d6000803e3d6000fd5b505050506040513d601f19601f82011682018060405250810190610a6b919061164d565b507f7bb2b3c10797baccb6f8c4791f1edd6ca2f0d028ee0eda64b01a9a57e3a653f782604051610a9b91906111d9565b60405180910390a15050565b6000600260008381526020019081526020016000206040518060c00160405290816000820160009054906101000a900473ffffffffffffffffffffffffffffffffffffffff1673ffffffffffffffffffffffffffffffffffffffff1673ffffffffffffffffffffffffffffffffffffffff16815260200160018201548152602001600282015481526020016003820160009054906101000a900463ffffffff1663ffffffff1663ffffffff1681526020016003820160049054906101000a900463ffffffff1663ffffffff1663ffffffff1681526020016003820160089054906101000a900460ff1615151515815250509050806000015173ffffffffffffffffffffffffffffffffffffffff163373ffffffffffffffffffffffffffffffffffffffff1614610c0c576040517f08c379a0000000000000000000000000000000000000000000000000000000008152600401610c039061156c565b60405180910390fd5b806060015163ffffffff164210610c58576040517f08c379a0000000000000000000000000000000000000000000000000000000008152600401610c4f9061191e565b60405180910390fd5b60026000838152602001908152602001600020600080820160006101000a81549073ffffffffffffffffffffffffffffffffffffffff0219169055600182016000905560028201600090556003820160006101000a81549063ffffffff02191690556003820160046101000a81549063ffffffff02191690556003820160086101000a81549060ff021916905550507f8bf30e7ff26833413be5f69e1d373744864d600b664204b4a2f9844a8eedb9ed82604051610d1691906111d9565b60405180910390a15050565b60006002600084815260200190815260200160002090508060030160049054906101000a900463ffffffff1663ffffffff16421115610d96576040517f08c379a0000000000000000000000000000000000000000000000000000000008152600401610d8d9061198a565b60405180910390fd5b81816002016000828254610daa91906119aa565b92505081905550816003600085815260200190815260200160002060003373ffffffffffffffffffffffffffffffffffffffff1673ffffffffffffffffffffffffffffffffffffffff1681526020019081526020016000206000828254610e1191906119aa565b925050819055507f000000000000000000000000000000000000000000000000000000000000000073ffffffffffffffffffffffffffffffffffffffff1663a9059cbb33846040518363ffffffff1660e01b8152600401610e739291906115f8565b6020604051808303816000875af1158015610e92573d6000803e3d6000fd5b505050506040513d601f19601f82011682018060405250810190610eb6919061164d565b503373ffffffffffffffffffffffffffffffffffffffff16837f2eeeab891b26a214d1b25749f88a406bdea852bd8c9bfda977e0ef8114c180ba84604051610efe91906111d9565b60405180910390a3505050565b60008054906101000a900473ffffffffffffffffffffffffffffffffffffffff1681565b6003602052816000526040600020602052806000526040600020600091509150505481565b7f000000000000000000000000000000000000000000000000000000000000000081565b60006002600084815260200190815260200160002090508060030160009054906101000a900463ffffffff1663ffffffff16421015610fec576040517f08c379a0000000000000000000000000000000000000000000000000000000008152600401610fe390611a2a565b60405180910390fd5b8060030160049054906101000a900463ffffffff1663ffffffff16421115611049576040517f08c379a00000000000000000000000000000000000000000000000000000000081526004016110409061198a565b60405180910390fd5b8181600201600082825461105d9190611715565b92505081905550816003600085815260200190815260200160002060003373ffffffffffffffffffffffffffffffffffffffff1673ffffffffffffffffffffffffffffffffffffffff16815260200190815260200160002060008282546110c49190611715565b925050819055507f000000000000000000000000000000000000000000000000000000000000000073ffffffffffffffffffffffffffffffffffffffff166323b872dd3330856040518463ffffffff1660e01b815260040161112893929190611a4a565b6020604051808303816000875af1158015611147573d6000803e3d6000fd5b505050506040513d601f19601f8201168201806040525081019061116b919061164d565b503373ffffffffffffffffffffffffffffffffffffffff16837f06bdb975df800a73232998e71ed585d536222f1dfeaa622d7f62a23ada686c82846040516111b391906111d9565b60405180910390a3505050565b6000819050919050565b6111d3816111c0565b82525050565b60006020820190506111ee60008301846111ca565b92915050565b600080fd5b611202816111c0565b811461120d57600080fd5b50565b60008135905061121f816111f9565b92915050565b60006020828403121561123b5761123a6111f4565b5b600061124984828501611210565b91505092915050565b600073ffffffffffffffffffffffffffffffffffffffff82169050919050565b600061127d82611252565b9050919050565b61128d81611272565b82525050565b600063ffffffff82169050919050565b6112ac81611293565b82525050565b60008115159050919050565b6112c7816112b2565b82525050565b600060c0820190506112e26000830189611284565b6112ef60208301886111ca565b6112fc60408301876111ca565b61130960608301866112a3565b61131660808301856112a3565b61132360a08301846112be565b979650505050505050565b61133781611293565b811461134257600080fd5b50565b6000813590506113548161132e565b92915050565b600080600060608486031215611373576113726111f4565b5b600061138186828701611210565b935050602061139286828701611345565b92505060406113a386828701611345565b9150509250925092565b600080604083850312156113c4576113c36111f4565b5b60006113d285828601611210565b92505060206113e385828601611210565b9150509250929050565b60006113f882611252565b9050919050565b611408816113ed565b82525050565b600060208201905061142360008301846113ff565b92915050565b61143281611272565b811461143d57600080fd5b50565b60008135905061144f81611429565b92915050565b6000806040838503121561146c5761146b6111f4565b5b600061147a85828601611210565b925050602061148b85828601611440565b9150509250929050565b6000819050919050565b60006114ba6114b56114b084611252565b611495565b611252565b9050919050565b60006114cc8261149f565b9050919050565b60006114de826114c1565b9050919050565b6114ee816114d3565b82525050565b600060208201905061150960008301846114e5565b92915050565b600082825260208201905092915050565b7f6e6f742063726561746f72000000000000000000000000000000000000000000600082015250565b6000611556600b8361150f565b915061156182611520565b602082019050919050565b6000602082019050818103600083015261158581611549565b9050919050565b7f6e6f7420656e6465640000000000000000000000000000000000000000000000600082015250565b60006115c260098361150f565b91506115cd8261158c565b602082019050919050565b600060208201905081810360008301526115f1816115b5565b9050919050565b600060408201905061160d6000830185611284565b61161a60208301846111ca565b9392505050565b61162a816112b2565b811461163557600080fd5b50565b60008151905061164781611621565b92915050565b600060208284031215611663576116626111f4565b5b600061167184828501611638565b91505092915050565b7f656e64206174203c207374617274206174000000000000000000000000000000600082015250565b60006116b060118361150f565b91506116bb8261167a565b602082019050919050565b600060208201905081810360008301526116df816116a3565b9050919050565b7f4e487b7100000000000000000000000000000000000000000000000000000000600052601160045260246000fd5b6000611720826111c0565b915061172b836111c0565b9250828201905080821115611743576117426116e6565b5b92915050565b7f656e64206174203e206d6178206475726174696f6e0000000000000000000000600082015250565b600061177f60158361150f565b915061178a82611749565b602082019050919050565b600060208201905081810360008301526117ae81611772565b9050919050565b60006080820190506117ca60008301876111ca565b6117d760208301866111ca565b6117e460408301856112a3565b6117f160608301846112a3565b95945050505050565b7f706c6564676564203c20676f616c000000000000000000000000000000000000600082015250565b6000611830600e8361150f565b915061183b826117fa565b602082019050919050565b6000602082019050818103600083015261185f81611823565b9050919050565b7f636c61696d656400000000000000000000000000000000000000000000000000600082015250565b600061189c60078361150f565b91506118a782611866565b602082019050919050565b600060208201905081810360008301526118cb8161188f565b9050919050565b7f7374617274656400000000000000000000000000000000000000000000000000600082015250565b600061190860078361150f565b9150611913826118d2565b602082019050919050565b60006020820190508181036000830152611937816118fb565b9050919050565b7f656e646564000000000000000000000000000000000000000000000000000000600082015250565b600061197460058361150f565b915061197f8261193e565b602082019050919050565b600060208201905081810360008301526119a381611967565b9050919050565b60006119b5826111c0565b91506119c0836111c0565b92508282039050818111156119d8576119d76116e6565b5b92915050565b7f6e6f742073746172746564000000000000000000000000000000000000000000600082015250565b6000611a14600b8361150f565b9150611a1f826119de565b602082019050919050565b60006020820190508181036000830152611a4381611a07565b9050919050565b6000606082019050611a5f6000830186611284565b611a6c6020830185611284565b611a7960408301846111ca565b94935050505056fea26469706673582212207571e93e28682a7a39d797d2829ae2667e61a613427e51ed7611e335a5084d7e64736f6c63430008110033",
  "linkReferences": {},
  "deployedLinkReferences": {}
}